:02000000B42D1D
:10000800FF00030E83018316EA000A08E9008A014B
:1000180070088312A3007108A2007208A100730877
:10002800A0000C1C33280C10F8308F0030308E00E4
:100038002908F0002A08F1002B08F2002C08F30028
:10004800F00A0319F10A0319F20A0319F30A7008EE
:10005800A9007108AA007208AB007308AC00230855
:10006800F0002208F1002108F2002008F3008316AE
:0E00780069088A006A0E8300FF0E7F0E0900E1
:060086000000000008006C
:0E008C00213083120313FD00FD0B4A280800EB
:10009A000F3083120313FC004730FD00FD0B532879
:0A00AA00FC0B5328000000000800C2
:1000B40083120317EC1B60288611612886156C1BBC
:1000C4006528061166280615EC1A6A2886106B281E
:1000D40086146C1A6F2806107028061483160313EE
:1000E400DF187728831206167928831206128616DB
:1000F400432086120317EC1981288611822886155D
:100104006C198628061187280615EC188B2886108A
:100114008C2886146C1890280610912806148316CF
:100124000313DF189828831206169A2883120612DE
:100134008616432086128316DF1CA2284D20A3288E
:040144004620080049
:0E0148008316031363088A0062088200080011
:1001560083120313F801F9011030FC00710DF80D3C
:10016600F90D7408F8027508031C750FF9020318D7
:10017600C3287408F80775080318750FF9070310E4
:0A018600F00DF10DFC0BB12808008C
:10019000F62883160313E71583120317EA0A0319D7
:1001A000EB0A5B2983160313671483120317EA0A09
:1001B0000319EB0A5B2983160313E7148312031751
:1001C000EA0A0319EB0A5B2983160313E815831265
:1001D0000317EA0A0319EB0A5B2983160313671551
:1001E00083120317EA0A0319EB0A5B298312031728
:1001F0006A0883160313E200831203176B08831641
:100200000313E300A4208A110A12F10071082D3AA9
:100210000319C928831203176A0883160313E2001F
:10022000831203176B0883160313E300A4208A11BB
:100230000A12F1007108203A0319D2288312031719
:100240006A0883160313E200831203176B088316F0
:100250000313E300A4208A110A12F10071082B3A5B
:100260000319DB28831203176A0883160313E200BD
:10027000831203176B0883160313E300A4208A116B
:100280000A12F1007108233A0319E42883120317B4
:100290006A0883160313E200831203176B088316A0
:1002A0000313E300A4208A110A12F1007108303A06
:1002B0000319ED285C29C82883160313E71C61295C
:1002C0006710E71D64296711831203176A08F0009D
:0602D0006B08F1000800BC
:1002D600831203176A08393C031C782930306A02F6
:0E02E600031C78290130F0007929F00108008E
:1002F40083160313671DE929E71C9429671C8529C4
:100304002D30F30087292B30F300831203176A087A
:10031400840073088000EA0A83160313E50A0319AC
:10032400E60AD029671CA329831203176A088400EC
:1003340020308000EA0A83160313E50A0319E60A4B
:10034400D029C0306705F10068080839F200720846
:10035400083A031DAF2980307106031DD02983128A
:1003640003176A08840030308000EA0A83160313F6
:10037400E50A0319E60AE71EC2295830F400C42925
:100384007830F400831203176A088400740880002C
:10039400EA0A83160313E50A0319E60A60086104EE
:1003A4000319E829831203176A0884003030800097
:1003B400EA0A83160313E50A0319E60A0130E00288
:1003C400031CE10360086104031DD4296F2A60083B
:1003D40061040319032AE719032A831203176A081D
:1003E400840020308000EA0A83160313E50A031907
:1003F400E60A0130E002031CE10360086104031D06
:10040400EF29E71C192A671C0A2A2D30F5000C2A4B
:100414002B30F500831203176A08840075088000E6
:10042400EA0A83160313E50A0319E60A272A671C56
:10043400272A831203176A08840020308000EA0AFE
:1004440083160313E50A0319E60AC0306705F100B1
:1004540068080839F2007208083A031D332A40304C
:100464007106031D422A831203176A088400303080
:100474008000EA0A83160313E50A0319E60A6F2AC1
:10048400C0306705F10068080839F2007208083ABC
:10049400031D4E2A80307106031D6F2A8312031731
:1004A4006A08840030308000EA0A83160313E50AE0
:1004B4000319E60AE71E612A5830F600632A7830E9
:1004C400F600831203176A08840076088000EA0A9B
:1004D40083160313E50A0319E60A8030F00080301E
:1004E4005D067002031D792A5C0883126F020318EB
:1004F400882A031783126A08840030308000EA0ACD
:1005040083160313E50A0319E60A6F2A83120317F5
:060514006A08F000080077
:10051A0083120313FB01FA01F9018030F800F10C90
:10052A00F00C031CA12A7408F90775080318750F43
:10053A00FA070318FB0A0310F01FA92A7408FA071E
:10054A0075080318750FFB07FB0CFA0CF90CF80C6D
:10055A00031C942A7B08F3007A08F2007908F10058
:06056A007808F000080013
:1005700083160313DF10831203176A08EC005A2056
:060580008316DF140800E1
:10058600831603139818C92A0000C32A8312031777
:0805960062080313990008003C
:10059E000E3083120313FD00FD0BD32A000008005A
:1005AE00E92A803083120317E200FC2AC030E200F1
:1005BE00FC2A9430E200FC2AD430E200FC2A80307F
:1005CE00E200FC2A831203176208013A0319D82AA3
:1005DE006208023A0319DD2A6208033A0319E02A77
:1005EE006208043A0319E32AE62A6303F00062085C
:1005FE00F0077008E2007008EC005A208316DF1036
:10060E0083120317E50165086407840000080319C7
:10061E001A2B6508640784000008EA00B8228312CA
:0E062E000317E50A0A2B83160313DF140800D6
:10063C00083083120317D600D7015608F000D603F2
:10064C0070080319442B061B2C2B292B1A30FD0088
:10065C00FD0B2E2B0000061F432B5608F10001301A
:10066C00F000710803193E2BF00D7010FF3E382B73
:10067C007008D704061F432B402B232B5708F00080
:02068C00080064
:10068E00831203139F01C0309F044609F0007008C7
:10069E0083169F051F179F17831203175608F00026
:1006AE00F00D7010F00D7010F00D70107008031337
:1006BE009F041F14CF221F151F1D672B0000632BD5
:1006CE001F101E08F100F00183161E08F004003002
:0406DE00F10408001B
:1006E200831603131208013EF000F1010318F10A08
:1006F200831203175608F400F5018D220630F2002A
:100702007008F4007108F500720803198D2BF50CBE
:10071200F40CF513FF3E862B0430F1007408F00050
:1007220071080319982BF00D7010FF3E922B303098
:100732007005F3007408F0007508F100F10CF00C7C
:10074200F113F10CF00CF113700895000F309705BE
:0607520073089704080083
:0C0758008312031395011712971208007A
:10076400593083120317E1005608E2005708E300EA
:100774005808E4006130E5008A1500208A117008E9
:1007840083120317DF007108E00070085607840025
:0C07940080015F08F0006008F100080020
:0E07A0000030831203138C1A0130F0000800A1
:1007AE00831203132908F0002A08F1002B08F20027
:0607BE002C08F300080006
:1007C400831203131A08F100981CEA2B1812181646
:0607D4007108F0000800AE
:1007DA00013083120317EC005A2001300317E2009C
:0C07EA000130E3005608E400D7220800AC
:1007F600831603130711831212150C309704080091
:100806008316031398169030831298008316871761
:10081600071383128C1E122C1A08F0000C2C0800E9
:1008260083120317D801560884000008D70057081A
:10083600003A0319292C5708E200C3220317D80AE5
:0E0846005808560784000008D7001A2C080036
:10085400831203130613831606134130FC00EE3093
:10086400FD00FD0B332CFC0B332C00008312061708
:100874002E30FD00FD0B3C2C00008316061783125E
:10088400061F452C412C061B482C452C061F4B2CBF
:10089400482C1E23831603136E08840070088000FE
:1008A4001E231E23831603136F0884007008800020
:0608B4001E231E230800B4
:0A08BA0083120317D6017123080012
:1008C40083160313EF0183120317A70126080319E4
:1008D400BA2C2608FF3A0319702CA603D0237008FB
:1008E400003A031D762C702CE22370088316EE0068
:1008F4006F0883120317240784007008800083168E
:100904000313EF0A8312031727082507840000083E
:10091400831603136E06031D932C83120317A70A71
:10092400A12C83120317A70125088400000883164D
:1009340003136E06031DA12C83120317A70A831247
:1009440003172708250784000008003A031DB92C63
:100954002708831603136F02F000F101031CF1034F
:10096400700883120317240784008001BD2C682CAF
:08097400240884008001080042
:10097C0083120313F8010830FC00700DF80D740895
:10098C00F8020318CB2CF8070310F00DFC0BC32C4A
:02099C00080051
:10099E00243083120317D6007230D7000730D800E8
:1009AE00031331080317D900031332080317DA00B3
:1009BE00831603136E0883120317DB0083160313CB
:1009CE006F0883120317DC00031333080317DD00CF
:1009DE00031334080317DE00B2232430D600ED23B0
:0C09EE00243083120317D60013240800E5
:1009FA00003083120313051801300317D60047236A
:100A0A0070088312B1007108B200003085180130F5
:100A1A000317D600472370088312B3007108B40085
:020A2A000800C2
:100A2C008312031312149210633083169200AC23BA
:0A0A3C00FB230317D6017123080005
:0E0A460033308316031399001815032408009B
:100A5400A4208A110A128000840AE20A0319E30A14
:080A6400F003031D2A2D080018
:100A6C004B3083120317D6007123D7237008AD00C7
:0E0A7C007108AE007208AF007308B0000800E9
:100A8A00831603136E08840000080319592D6E0893
:100A9A0084000008F1006F08840071080006031D35
:100AAA00592DEE0AEF0A452D6E0884000008F00061
:100ABA006F0884000008F002F101031CF10308002A
:100ACA008316031386120612061086100611861163
:100ADA0083128612061286110611861006104D2000
:100AEA004D204D20861406148616432086124D206A
:100AFA008616432086124D208616432086124D20E4
:100B0A0006108616432086124D208616432086122A
:100B1A00861086158616432086124D2086110614E5
:100B2A0086164320861206108616432086124D200A
:100B3A0086164320861206148616432086124D20F6
:100B4A000610861643208612861506158614061484
:0E0B5A008616432086124D208316DF140800F5
:100B68008A15C0258A110130831203139F0083164A
:100B780007115F146525013083120317EC005A2012
:100B880023251625FD24DE308316EE00E430EF0021
:100B98002A240A30F400831603136408F000BE24E4
:100BA800303070078316A7000A30F4006408F0009C
:100BB800BE247808F000303070078316A8000A3089
:100BC800F4005E08F000BE2430307007E4000A30FC
:100BD800F40083165E08F000BE247808F000303078
:100BE8007007E500DF308316AB004D308312031722
:100BF800D600ED230B30FB002630FC005D30FD00F5
:100C0800FD0B042EFC0B042EFB0B042E0000000031
:100C18005E08EE006408EF00CF24013003133202AF
:100C2800031D182EF43031020318222E83165F1C80
:100C3800222E3625AE300317D600ED238312300856
:100C4800003C031D312E2F08003C031D312E2E08B9
:100C5800003C031D312E2D08003C0318632ED723BA
:100C68007008F4007108F5007208F6007308F700C0
:100C78002D08F4022E08031C2E0FF5022F08031C62
:100C88002F0FF6023008031C300FF70200307702EE
:100C9800031D582E00307602031D582E03307502AE
:100CA800031D582EE8307402031C632E5D24AD0129
:100CB800AE01AF01B001CA300317D600ED23D72328
:100CC8007008F4007108F5007208F6007308F70060
:100CD8006B08F4026C08031C6C0FF5026D08031C0A
:100CE8006D0FF6026E08031C6E0FF70200307702D4
:100CF800031D882E00307602031D882E27307502CA
:100D0800031D882E10307402031C9D2E8312BA30E6
:100D18000317D600ED235E08EE006408EF00CF2429
:100D2800D7237008EB007108EC007208ED00730817
:100D3800EE00D02370080319EF2E0D308316EB0058
:100D48000A30EC00ED01103083120317A400EB30D9
:100D5800A500FF30A6006224103083160313EE00AE
:100D68004730EF00452500307106031DBD2E0030C9
:100D78007006031DC12E3625EF2E10308316EE00A7
:100D88004130EF00452500307106031DCD2E00309F
:100D98007006031DD12E5D24EF2E10308316EE0051
:100DA8003C30EF00452500307106031DDD2E003074
:100DB8007006031DE12E5F14EF2E1030EE00353063
:100DC800EF00452500307106031DEC2E003070063B
:100DD800031DEF2E5F100230FB000430FC00BA3018
:100DE800FD00FD0BF52EFC0BF52EFB0BF52E000080
:040DF800C62DFD2ED9
:1010000083160313E501E601E701E80183120317E4
:101010006308F0006408F100E30A0319E40A7008A9
:1010200083160313E2007108E3008A11A4208A15D5
:101030000A12F00070088312EF0070080319BA2D2D
:101040006F08253A03193228031762088400031336
:101050006F0880000317E20A83160313E50A0319D9
:10106000E60A06288316E001E101E701E8018312A0
:1010700003176308EA006408EB008A11C8208A1588
:101080007008E3007108E400700883160313E2009F
:101090007108E3008A11A4208A150A12F0000030BA
:1010A000F100700883120317EA008A116B218A1578
:1010B00070080319A82883160313E001E1018316C1
:1010C00003136008F0006108F1000A30F4000030FA
:1010D000F5008A118D228A150317630883160313FE
:1010E000E20083120317640883160313E3008A11D6
:1010F000A4208A150A12F20072087007E000710835
:101100000318013EE1003030E002031CE1038312CA
:101110000317E30A0319E40A630883160313E200C2
:1011200083120317640883160313E3008A11A420B3
:101130008A150A12F0000030F100700883120317BC
:10114000EA008A116B218A157008031D5F28D828D0
:10115000630883160313E2008312031764088316DF
:101160000313E3008A11A4208A150A12F100710802
:101170002A3A031DD8288312031765088400000843
:10118000F00070088400000883160313E000840A4E
:101190000008E1008312031765088400023000078D
:1011A000F0006508840070088000E30A0319E40A6F
:1011B00083120317630883160313E20083120317D5
:1011C000640883160313E3008A11A4208A150A1207
:1011D000F10071082E3A031D732983120317E30AE5
:1011E0000319E40A630883160313E200831203174A
:1011F000640883160313E3008A11A4208A150A12D7
:10120000F10071082A3A031D232983120317650888
:1012100084000008F000700884000008831603139F
:10122000DC00840A0008DD008312031765088400CF
:1012300002300007F0006508840070088000E30AAF
:101240000319E40A722983160313DC01DD018312FA
:101250000317630883160313E2008312031764085D
:1012600083160313E3008A11A4208A150A12F000E2
:101270000030F100700883120317EA008A116B2115
:101280008A15700803197229831603135C08F0008D
:101290005D08F1000A30F4000030F5008A118D225B
:1012A0008A150317630883160313E20083120317DA
:1012B000640883160313E3008A11A4208A150A1216
:1012C000F20072087007DC0071080318013EDD00AF
:1012D0003030DC02031CDD0383120317E30A031919
:1012E000E40A2729772983160313DC01DD01831221
:1012F00003176308F0006408F100E30A0319E40A25
:10130000700883160313E2007108E3008A11A42019
:101310008A150A128312EF00902A83166508F000DE
:101320006608F100BF2D83166717C22AC22A8316EA
:10133000E7168316E717C22A83120317650884008D
:101340000008F000700884000008E60065088400CA
:10135000000AF00065088400700880006608003A02
:10136000031DB4292430E600E701E8016708660799
:10137000840000080319C9296708013EF000003005
:101380000318013E6807F1007008E7007108E800E3
:10139000B629831603135C085D040319E929831237
:1013A00003176808831603135D02031DDD298312EA
:1013B00003176708831603135C020318E9295C0806
:1013C00083120317E700831603135D0883120317C4
:1013D000E800831603136108831203176802031DD4
:1013E000F729831603136008831203176702031893
:1013F000062A670883160313E002031CE103831225
:101400000317680883160313E1020A2A83160313DD
:10141000E001E101E719252A6008F0006108F10008
:101420000130E002031CE103700871040319252A4E
:10143000831203176208840020308000E20A8316BA
:101440000313E50A0319E60A0C2A83120317670837
:10145000F2006808F30001306702F0000030031C5E
:10146000013E6802F1007008E7007108E8007208A8
:10147000730403194E2A660884000008F00062080D
:10148000840070088000E20A660AF0007008E60036
:1014900083160313E50A0319E60A252A83160313A4
:1014A000E71D6B2A6008F0006108F1000130E002DE
:1014B000031CE1037008710403196B2A83120317DC
:1014C0006208840020308000E20A83160313E50AD4
:1014D0000319E60A522A06288312031765088400B6
:1014E0000008F0007008840000080313EF000317E1
:1014F0006508840002300007F00065088400700869
:10150000800003176F30E6000130E7000030E8008C
:10151000C929C03083160313E7040030E804C22A47
:1015200083126F08003A03198D296F086C3A03196A
:1015300093296F084C3A031993296F086F3A0319DE
:1015400093296F08643A031996296F08693A0319B9
:1015500096296F08703A031997296F08583A0319AA
:1015600097296F08783A031999296F08733A031974
:101570009C296F08633A03196C2A6F08753A03199E
:10158000892A812AC03083166705F1006808F200B5
:101590000030F20500307206031DD02A00307106BB
:1015A000031D082B83120317650884000008F00050
:1015B000700884000008E600840A0008E700650857
:1015C000840002300007F000650884007008800085
:1015D00080306706F00080307002031DF12A003071
:1015E00066020318072B033083160313E704003049
:1015F000E804831203176608003CF0006708031C28
:10160000013EF101F1027008E6007108E7001E2BAF
:1016100083120317650884000008F0007008840036
:101620000008E600840A0008E7006508840002302C
:101630000007F00065088400700880000030831601
:1016400003135D06031D262B00305C06031D372B9C
:101650000030831203176706031D302B0030660627
:10166000031D372B83160313DC0A0319DD0A8316C7
:101670000313C0306705F0007008F400DE2B03137D
:1016800001308312EF006F08053A0319732B6F08BE
:10169000F000F101F00DF10D7010DC30F0070730B3
:1016A0000318013EF10770088316E2007108E30099
:1016B0008A11A4208A150A12F200E20A0319E30A29
:1016C0008A11A4208A150A12F300730883120317E3
:1016D0006702031D6D2B720866020318702B732BB3
:1016E0000313EF0A432BEE2B831203130130EF0099
:1016F0006F08043A0319A82B6F08F000F101F00DF0
:10170000F10D7010E630F00707300318013EF107C5
:1017100070088316E2007108E3008A11A4208A157C
:101720000A12F200E20A0319E30A8A11A4208A15B8
:101730000A12F3007308831203176702031DA22B1A
:10174000720866020318A52BA82B0313EF0A782B47
:10175000EE2B831203130130EF006F08063A0319D2
:10176000DD2B6F08F000F101F00DF10D7010D0309D
:10177000F00707300318013EF10770088316E200F6
:101780007108E3008A11A4208A150A12F200E20A05
:101790000319E30A8A11A4208A150A12F3007308B8
:1017A000831203176702031DD72B72086602031802
:1017B000DA2BDD2B0313EF0AAD2BEE2B7408003A66
:1017C00003193F2B7408C03A03193F2B7408803A61
:1017D0000319742B7408403A0319A92B03138030A2
:1017E000F000803083165D067002031DFA2B5C0842
:1017F00083126F020318012C83165C088312EF001A
:10180000142C803083165D06F00080307002031DBA
:101810000D2C83126F0883165C020318142C83129C
:101820006F088316DC00DD0183166008610403196C
:10183000282C03306705F0006808F1000030F1053E
:10184000700871040319282C0130E002031CE10325
:1018500080305D06F000803061067002031D322C7E
:1018600060085C0203183B2C5C08E002031CE103E7
:101870005D08E1023D2CE001E101C4306705F100A3
:1018800068080839F2007208083A031D492C4030F4
:101890007106031D542C600861040319532C013098
:1018A000E002031CE103742CC0306705F1006808F6
:1018B0000839F2007208083A031D602C8030710666
:1018C000031D742C8030F000803061067002031D0F
:1018D0006B2C6008023C0318722C0230E002031CDF
:1018E000E103742CE001E101831203176208EA00AE
:1018F0008A117A218A157008E200831603135C08A6
:10190000F0005D08F1000130DC02031CDD0370080B
:1019100071040319982DC0306705F0007008831218
:101920000317E900792D831603135C08F0005D08A6
:10193000F100F00DF10D7010DC30F00707300318E6
:10194000013EF1077008E2007108E3008A11A4204B
:101950008A150A12F400E20A0319E30A8A11A42084
:101960008A150A12F500831203176608F00067084B
:10197000F1008A11AB208A150A30F4000030F5001E
:101980008A11AB208A157808F0007908F100303010
:101990007007EF008A2D03138316E71E0C2D5C08D9
:1019A000F0005D08F100F00DF10D7010E630F00769
:1019B00007300318013EF1077008E2007108E300E8
:1019C0008A11A4208A150A12F400E20A0319E30A14
:1019D0008A11A4208A150A12F500831203176608DB
:1019E000F0006708F1008A11AB208A150F30F0056E
:1019F0000030F105BF30F00707300318013EF10752
:101A000070088316E2007108E3008A11A4208A1589
:101A10000A128312EF00492D83165C08F0005D085E
:101A2000F100F00DF10D7010E630F00707300318EB
:101A3000013EF1077008E2007108E3008A11A4205A
:101A40008A150A12F400E20A0319E30A8A11A42093
:101A50008A150A12F500831203176608F00067085A
:101A6000F1008A11AB208A150F30F0050030F10526
:101A7000AE30F00707300318013EF10770088316F7
:101A8000E2007108E3008A11A4208A150A12831269
:101A9000EF008A2D031383165C08F0005D08F10047
:101AA000F00DF10D7010D030F00707300318013E33
:101AB000F1077008E2007108E3008A11A4208A157A
:101AC0000A12F400E20A0319E30A8A11A4208A1513
:101AD0000A12F500831203176608F0006708F10088
:101AE0008A11AB208A1507307005EF003030EF0700
:101AF0008A2D03176908003A0319932C6908C03A24
:101B00000319932C6908803A0319CB2C6908403AD1
:101B100003194A2D03176208840003136F0880001D
:101B20000317E20A83160313E50A0319E60A7D2C5C
:101B3000E71DB92D8030F000803061067002031D72
:101B4000A32D6008003C0318B92D83120317620807
:101B5000840020308000E20A83160313E50A03198B
:101B6000E60A0130E002031CE10360086104031D82
:101B7000A52D062883166508F0006608F100080008
:101B800024308400473083120313F00001308316A1
:101B9000E2000730E3008A112A258A15A03084006C
:101BA0002A300313F00048308316E2000730E300C8
:101BB0008A112A258A156B30840004300313F00043
:101BC000EE308316E2000730E3008A112A258A15D9
:101BD000CA30840012300313F0009C308316E200F8
:0C1BE0000730E3008A112A258A1508004E
:0A0E02006E3475346C346C34003427
:080E0C0000340034003400340E
:080E1400003400340034003406
:040E1C00003400346A
:040E20000034003466
:0E0E24006D3461346E34753461346C340034D6
:0A0E32006134753474346F340034F9
:0A0E3C00733474346F3470340034E2
:020E46000F3467
:0C0E480077346134743465347234003443
:100E54004C346F346734673469346E346734203407
:100E640064346134743461342E342E342E340034BA
:100E7400483475346D34693420343D34203430348E
:0C0E840030342E34303420342534003457
:100E9000543465346D34703420343D34203430346F
:0C0EA00030342E3430342034433400341D
:100EAC005734613474346534723469346E34673455
:080EBC002E342E342E340034D4
:100EC4004C346F346734673469346E346734203497
:100ED40064346134743461342E342E342E3400344A
:100EE40053346F3469346C343A3425342E34323408
:100EF40064342C34543465346D3470343A342534C9
:100F04002E34313466342C34483475346D346934B9
:100F140064343A3425342E34313466342C344C342D
:100F240069346734683474343A3425342E343234B2
:040F340064340034ED
:100F38005734613474346534723469346E346734C8
:100F4800203463346F346D3470346C3465347434E5
:040F580065340034C8
:100F5C003034313432343334343435343634373449
:100F6C00383439346134623463346434653466340F
:020F7C0000343F
:100F7E003034313432343334343435343634373427
:100F8E0038343934413442344334443445344634AD
:020F9E0000341D
:100FA0000134003408340034403400340034023456
:080FB0000034103400348034D9
:100FB800013400340A34003464340034E83403342F
:040FC8001034273486
:100FCC000134003410340034003401340034103453
:080FDC0000340034003400343D
:02400E004A2F37
:00000001FF
